:02000002B0004C
:1040000000400B0076640B00000006000C00050267
:084010000401B41400000000DB
:04401800F45F0B0046
:10401C0010F8012B11F8013B012A28BF9A42F7D066
:10402C00D01A7047034613F8012B002AFBD1181A3B
:10403C000138704709480A49884208B505D0094A31
:10404C00824202D0121A01F01DFF0748074A0021D4
:10405C00121A01F025FF014808BD00BF10E603202D
:10406C00DC630B007CE603207CE60320F0E70320F6
:10407C0070B5074E074C01F059F8A41BA408002595
:10408C00AC4200D170BD56F8043B98470135F7E7B8
:10409C0094630B00B8630B0000F05CB808B500F03B
:1040AC0079F8BDE8084000F0F9BF00F001BE00F05F
:1040BC00FFBD00F005BE00F003BE0078B0FA80F042
:1040CC00400970470123037070470EB403B503AB6E
:1040DC00002153F8042B019300F05FFF02B05DF850
:1040EC0004EB03B070470000B0B502F1080323F0F5
:1040FC00070300AFADEB030D15460446684601F00F
:10410C00C1FE00230DF8053001F02EF90C496A466A
:10411C00FFF7DBFF0B492046FFF77AFF30B901F0C0
:10412C0023F9094900F011FFBD46B0BD07492046EF
:10413C00FFF76EFF0028F7D101F016F90449F1E7FB
:10414C0008600B000B600B0011600B0017600B007C
:10415C001D600B0010B50B4C01F006F94FF4165115
:10416C0001F0F6F80849204600F002FC0749204609
:10417C0000F0FEFB01F0F8F8BDE81040044900F037
:10418C00E4BE00BF7CE603200B600B0017600B0045
:10419C0022600B001FB50F4800F05AF928B10D48EA
:1041AC0005B05DF804EB00F09BBA684600F070FDBA
:1041BC000099084800F03CFA684600F001FE0649F8
:1041CC00044800F0D5FB0549024805B05DF804EB46
:1041DC0000F0CEBB7CE603200B600B0017600B00DD
:1041EC0007B50021012000F0D7FC002300930549FE
:1041FC00054B064840F25B7200F04EF803B05DF8D8
:10420C0004FB00BF29600B00F5400B007CE603208B
:10421C0091F85C3010B50446016013B1886D00F064
:10422C00DBFB204610BD10B5036893F85C200446F8
:10423C0012B1986D00F0D8FB204610BDF8B51F46A2
:10424C009DF8243004460D4616462BB1012380F808
:10425C005C30583000F0B8FB089B23630023636389
:10426C0006B1A66425B1294604F1380000F007FE1A
:10427C00069B2365079BE069A4F84C70FF2BB8BF25
:10428C00FF23A4F8543008B1FFF713FFB4F854001F
:10429C00FFF70DFFE061F8BD2DE9FF410446002555
:1042AC00174698460E4601F08FFB0D49E56104F167
:1042BC00380000F0D0FD9DF82830A564CDE90283CC
:1042CC00FF220F23CDE90032204684F85C503B4698
:1042DC002A463146FFF7B2FF204604B0BDE8F08114
:1042EC0028600B0010B50446204601F0C9FA0028DE
:1042FC00FAD0204601F0D2F8C0B210BD2DE9F0473B
:10430C0005468846FFF7EEFFEB691870EB6993F8EA
:10431C0000A04FF001090AF0F00A00274C4628468D
:10432C00FFF7E0FF2646EB69985500F07F0313FB7F
:10433C0009F31F4401340306A4B2BFB24FEAC919F2
:10434C00EDD4631EBAF1300F88F800301ED1284628
:10435C00FFF7C8FFEB6918552846FFF7C3FFF41C9D
:10436C000236B6B2EB69A4B298550226B6B2BE427A
:10437C000ED22846FFF7B6FFB5F85430A34284BFDF
:10438C00EB6918550134A4B20136EFE70026EDE7CE
:10439C00B5F85430A3422CBF20460020BDE8F0876E
:1043AC002DE9F34115461E461A460746002396464C
:1043BC0002A802F07F0CBEF17F0F03F1010403444D
:1043CC0088BF4CF0800CBEF17F0F4FEAD212E4B2E2
:1043DC0003F804CC1ED8C4F10403C4F10500E9545D
:1043EC00224601A9284405EB030801F04BFD721C81
:1043FC0022444146384601F03CF8054600F0DCFA10
:10440C00621C78623244A8B2131A5842584102B066
:10441C00BDE8F0812346CAE70233F0B5054698B2F1
:10442C000023CE5C9CB256B1B5F854C0844503F160
:10443C00010704D9441C16543B46A0B2F1E799B2CB
:10444C00411A0A44210A02F8021C02F8013CF0BD90
:10445C0038B5044601F036F9002814BF01250025B3
:10446C0002D1204601F066FA284638BD2DE9F04706
:10447C0088B00446DDF840809DF850A08946174668
:10448C001E46FFF7E5FF0546002840F0CD8021468B
:10449C0001A8FFF7BDFEA16C002940F08880B4F89C
:1044AC004C20A16B2B46204601F08EF800287AD0C8
:1044BC00012323849DF85430E269042B5B4B40F0BC
:1044CC008180186899889B79ADF80C108DF80E30A6
:1044DC000290C2F805009DF80E30BDF80C10A2F841
:1044EC000910D3720C23B8F1000F00F081809DF8F5
:1044FC0048009DF84420400140EAC20040F006000C
:10450C00C0B2BAF1000F01D100F0FD001FB1002EB6
:10451C0070D140F08000E269D054226DE169581CE2
:10452C0012120A549A1CE169206D88540333E26913
:10453C0049462046FFF770FF0346B8F1000F0BD039
:10454C00E26941462046FFF767FFE269139903468B
:10455C002046FFF761FF034667B1E2693946204602
:10456C00FFF75AFF03462EB1E26931462046FFF7AA
:10457C0053FF0346053BE2699BB210212046FFF72F
:10458C000FFF00F019FAC4E909004FF47A762046BF
:10459C0001F076F988BB00F00FFAA36AC01A236DFC
:1045AC0073439842F3D9204601F0C4F935E002A8D0
:1045BC0000F06CFEB4F84C202B4602A9204601F00A
:1045CC00E3F873E7D3F80700D3F80B10DB7B0DF19E
:1045DC00080CACE803008CF8003002AB03CBC2F83B
:1045EC000500C2F809109CF8003053730E237AE7CB
:1045FC00022086E740F0C0008DE702A92046FFF7B5
:10460C007DFE0428CFD1E369DE78002ECBD100F0FB
:10461C00D3F90125A06284F82C6001A8FFF703FEF2
:10462C00284608B0BDE8F0870025F9E7E45F0B00E9
:10463C007FB501230422CDE904320023CDE90233F6
:10464C00CDE900331A46FFF711FF07B05DF804FB04
:10465C0073B504460E46FFF7FBFE0546C8B121466E
:10466C0001A8FFF7D5FDE36962221A70E369022203
:10467C005A70E369320A9A70E369DE70E1690422C8
:10468C00204600F0F6FE051E01A818BF0125FFF715
:10469C00CAFD284602B070BD73B504460E46FFF73E
:1046AC00D7FE0546C8B1214601A8FFF7B1FDE36965
:1046BC0072221A70E36902225A70E369320A9A7004
:1046CC00E369DE70E1690422204600F0D2FE051E8B
:1046DC0001A818BF0125FFF7A6FD284602B070BD42
:1046EC002DE9F04F2DED028B87B000AF0446FFF79C
:1046FC00AFFE8146F8B1214607F11400FFF788FDA3
:10470C0000F05AF9236D4FF47A725343A26A821A5D
:10471C009A42064603D8626A821A934221D294F8CE
:10472C002C307BB1204601F005F94FF0000907F160
:10473C001400FFF778FD48461C37BD46BDEC028BD4
:10474C00BDE8F08FE269C0211170E2695370E16934
:10475C000222204600F08DFEC4E90966012384F88C
:10476C002C30204601F08CF80028E0D007F1130122
:10477C002046FFF7C3FD83460028D8D0E369A66224
:10478C00197801F0F002302A7FD1D4F830A0BAF1B8
:10479C00000FCCD097F813C06A4608EE102A03EB32
:1047AC000C025178957805EB0125ADB205F10802A4
:1047BC006946D208A1EBC20295460CF10302FA60DD
:1047CC0003EB020E0DEB05026846C7F808D07A60C1
:1047DC00D7E901218A4206D00A461EF8018B02F85D
:1047EC00018BBA60F4E70022425593F80080F96817
:1047FC0008F00608ABEB0C02033AB8F1020FA2EB7F
:10480C000502294425D113F801E01944023A91F824
:10481C0001B00CF10501294419440BEB0E2BD047C8
:10482C00E36940221A70E3691FFA8BFB83F801805D
:10483C00E3694FEA1B229A70E36983F803B0E169DC
:10484C000422204600F015FE666218EE103A9D46D2
:10485C006DE7B8F1040F15D113F801E01944023AD1
:10486C0091F801B00CF10501294419440BEB0E2B06
:10487C00D047E36950221A70E36902221FFA8BFBBE
:10488C005A70D5E71944D047DFE7502A08D19A78F7
:10489C00D97801EB022189B22046FFF7D9FE46E711
:1048AC00402A12D1626B002A3FF441AFBBF1040FD6
:1048BC007FF43DAF11F0060F7FF439AF9978D878BB
:1048CC0000EB012080B2904731E7602A08D19A783A
:1048DC00D97801EB022189B22046FFF7DDFE26E7ED
:1048EC00702ADFD0902A3FF422AFC02A0AD1D022FE
:1048FC001A70E36900225A70E1690222204600F026
:10490C00B8FD14E7D02A04BF002384F82C300EE73E
:10491C00F7B504460F461646FFF79AFD054610B349
:10492C00214601A8FFF774FC238C01339BB2EBB139
:10493C002384238CE2691B0A5371E369228C9A71DC
:10494C00E269072339462046FFF766FDE3691E54EA
:10495C00043883B2E26982212046FFF721FD054627
:10496C0001A8FFF760FC284603B0F0BD0123DFE788
:10497C000022FFF7CDBF000008B5024B1B689B68F7
:10498C00019308BD6802030008B5024B1B68DB6885
:10499C00019308BD6802030008B5024B1B685B69F4
:1049AC00019308BD6C02030008B5024B1B685B68E1
:1049BC00019308BD1802030008B5024B1B685B6924
:1049CC00019308BD1802030008B5024B1B681B6B52
:1049DC00019308BD4802030008B5024B1B689B6B92
:1049EC00019308BD4802030008B5024B1B681B6C01
:1049FC00019308BD4802030008B5024B1B685B6CB1
:104A0C00019308BD4802030008B5024B1B685B69A3
:104A1C00019308BD6402030008B5024B1B681B6AB6
:104A2C00019308BD6402030008B5024B1B689B6A26
:104A3C00019308BD6402030008B5024B1B68DB68D8
:104A4C00019308BD3C02030008B5024B1B681B69AF
:104A5C00019308BD3C02030008B5024B1B685B695F
:104A6C00019308BD3C02030008B5024B1B689B690F
:104A7C00019308BD3C02030008B5024B1B68DB69BF
:104A8C00019308BD3C02030008B5024B1B689B6AEE
:104A9C00019308BD3C02030008B5024B1B681B6C5C
:104AAC00019308BD3C02030008B5024B1B689B69CF
:104ABC00019308BD3802030008B5024B1B68DB6983
:104ACC00019308BD3802030008B5024B1B681B6A32
:104ADC00019308BD3802030008B5024B1B689B6AA2
:104AEC00019308BD3802030008B5024B1B681B6B11
:104AFC00019308BD3802030008B5024B1B689B6B81
:104B0C00019308BD3802030008B5024B1B681B68F3
:104B1C00019308BD4C02030008B5024B1B685B688F
:104B2C00019308BD4C02030008B5024B1B681B69BE
:104B3C00019308BD4C02030008B5024B1B685B696E
:104B4C00019308BD4C02030008B5024B1B689B691E
:104B5C00019308BD4C02030008B5024B1B68DB69CE
:104B6C00019308BD4C02030008B5024B1B681B6A7D
:104B7C00019308BD4C02030008B5024B1B681B6D6A
:104B8C00019308BD6002030008B5024B1B685B680B
:104B9C00019308BD2002030008B5024B1B68DB6AB9
:104BAC00019308BD2002030008B5034B1B68D3F822
:104BBC008830019308BD00002002030008B5034BA8
:104BCC001B68D3F89430019308BD00002002030049
:104BDC0008B5024B1B685B68019308BD40020300DB
:104BEC0008B5024B1B689B68019308BD400203008B
:104BFC0008B5024B1B68DB68019308BD400203003B
:104C0C0008B5024B1B681B69019308BD40020300E9
:104C1C0008B5024B1B685B69019308BD4002030099
:104C2C0008B5024B1B689B69019308BD4002030049
:104C3C0008B5024B1B68DB69019308BD40020300F9
:104C4C0008B5024B1B681B6A019308BD40020300A8
:104C5C0008B5024B1B681B6B019308BD4002030097
:104C6C0008B5024B1B685B6B019308BD4002030047
:104C7C0008B5024B1B681B6C019308BD4002030076
:104C8C0008B5024B1B685B6C019308BD4002030026
:104C9C0008B5024B1B68DB69019308BD4402030095
:104CAC0008B5024B1B68DB6B019308BD4402030083
:104CBC0008B5024B1B681B68019308BD1C0203005E
:104CCC0008B5024B1B685B68019308BD1C0203000E
:104CDC0008B5024B1B689B68019308BD1C020300BE
:104CEC0008B5024B1B685B6A019308BD1C020300EC
:104CFC0008B5024B1B68DB6B019308BD1C0203005B
:104D0C0008B5024B1B681B6C019308BD1C02030009
:104D1C0008B5024B1B685B6C019308BD1C020300B9
:104D2C00002240681146FFF78BBF002240681146F5
:104D3C00FFF796BF40680022FFF78ABF4068002249
:104D4C0081F00101FFF774BF002340681A46194631
:104D5C00FFF766BF002340681A461946FFF758BF95
:104D6C00002240681146FFF74BBF002240681146F5
:104D7C00FFF736BF406800220221FFF739BF00233E
:104D8C0040681A46FFF724BF024B03225A60024ABE
:104D9C001A607047DCE6032040600B00054B0222D2
:104DAC001A60054B054A9A600020C3E90000FFF722
:104DBC00EBBE00BFF0E60320E4E603200000FFFF9B
:104DCC0010B504460068FFF77BFF204610BD10B5F8
:104DDC000446006808B1FFF773FF0023C4E90133F0
:104DEC00236010BD38B504460D4600680131FFF74D
:104DFC006FFF10B1C4E90005012038BD10B5036880
:104E0C00044623B143688B4201D3012010BD2046D8
:104E1C00FFF7E8FF0028F9D0A368002BF5D1226832
:104E2C001370F2E737B50D46114601920446FFF7B1
:104E3C00E5FF019A28B92046FFF7C9FF204603B0C9
:104E4C0030BDA2602946206801F01CF82268A368D6
:104E5C000021D154F2E7002313B5C0E90033044616
:104E6C008360037341B108460191FFF7DBF80199A8
:104E7C0002462046FFF7D6FF204602B010BD13B500
:104E8C00044659B108460191FFF7CCF80199024646
:104E9C002046FFF7C7FF204602B010BDFFF797FF73
:104EAC00F9E710B54368013B0446436063B90368F6
:104EBC009B689847A368013BA3602BB923682046E5
:104ECC00DB68BDE81040184710BD00000248002305
:104EDC000360FFF791BD00BFF4E60320F8B506466A
:104EEC000D468F180024BD420CD0336815F8011BF9
:104EFC009B6830469847031E01DB1C44F3E7002CEB
:104F0C0008BF1C462046F8BD13B50446084659B1E7
:104F1C000191FFF787F823680199DB680246204668
:104F2C0002B0BDE81040184702B010BD03689B6882
:104F3C00184738B50D210546FFF7F8FF0A2104463E
:104F4C002846FFF7F3FF204438BD38B50546FFF778
:104F5C00DBFF04462846FFF7ECFF204438BD30B594
:104F6C008BB00023012A8DF8243098BF0A2209AC9B
:104F7C000D46B1FBF2F101FB125303F0FF03092BB9
:104F8C0094BF30333733DBB2AA4204F8013DEFD97A
:104F9C002146FFF7B9FF0BB030BD2DE9F04186B0CB
:104FAC0000AF05460E46381D142114463B60FFF732
:104FBC0097FE13280ED8391D2846FFF7A5FF044687
:104FCC001EB12846FFF7B5FF044420461837BD46EE
:104FDC00BDE8F08100F1080323F00703E846ADEBD0
:104FEC00030D2246411C3B686846FFF779FE694673
:104FFC002846FFF789FF0446C546E1E7014B024A04
:10500C001A607047F8E603207C600B00024B1A68AC
:10501C00024B1A60704700BF10E60320FCE6032029
:10502C0010B5044B03600446806908B1FFF739FFE3
:10503C00204610BD4C610B0010B50446FFF7F0FF85
:10504C0020461C21FFF737F8204610BD014B0022EB
:10505C009A60704700E70320014B1860704700BF4F
:10506C0014E6032008B50B4B43B100F07DF903683F
:10507C001B699847002801DDAFF30080064B43B154
:10508C0000F0C2FD03681B699847002801DDAFF3EF
:10509C00008008BD000000000000000008B5FFF70C
:1050AC00E1FFFFF789FC014B186008BD58E70320AE
:1050BC000548064A064908B5121A00F0E3FE054BEE
:1050CC00054A1A6008BD00BF00F4032004F4032055
:1050DC0048640B0000F403201E1C279A07B500231C
:1050EC0000931A466FF07701FFF768FD03B05DF887
:1050FC0004FB000007B543880A2B08D0502B0BD1BA
:10510C00094B1B684BB103B05DF804EB1847FFF774
:10511C00E5FF03B05DF804FB002300931A466FF023
:10512C007701FFF74BFDF4E714E7032010B51248A5
:10513C000021FFF7EDFD114B1A68114B9A42114BF0
:10514C000CBF012200221A7001D0FFF7B1FFFFF74C
:10515C002BFC044600F0ACFE0B4B13B12046AFF316
:10516C00008000210848FFF79BFDBDE81040074870
:10517C000021FFF719BD00BF65500B0000F40320A0
:10518C001E1C279A10E703200000000001510B00A1
:10519C00704710B518210446FEF78DFF204610BD50
:1051AC00F0B5037D062B8DB00E4600F104074FF0D1
:1051BC00000412D000F1080515F8011D0A22304632
:1051CC00FFF7CDFEAF42044419D0002CF4D02E21B1
:1051DC003046FFF7ABFE0444EEE72F236A46394610
:1051EC000A208DF80040FFF70FFC6846FEF71AFF07
:1051FC0033680246DB6869463046984704462046C9
:10520C000DB0F0BD10B5054B0446112240F8043B1F
:10521C00002100F045FE204610BD00BFA4600B002D
:10522C000346074A10B543F8042B01F1100251F85C
:10523C00044B43F8044B9142F9D10A781A7010BD13
:10524C00A4600B00037D042B04D14068003818BF08
:10525C0001207047062B07D143683BB983682BB9F3
:10526C00C3681BB90069F1E7002070470120704743
:10527C0010B59DF8084044EA032343EA024242EA8F
:10528C00016104234160037510BD000007B5064B96
:10529C000360CB7800938B784A780978FFF7E8FFA6
:1052AC0003B05DF804FB00BFA4600B0041747047B1
:1052BC007047704708B50021007CFFF745FC40EAB9
:1052CC00E07008BD08B50121007CFFF73DFC40EA09
:1052DC00E07008BD08B5007CFFF72EFC20EAE070FA
:1052EC0008BD08B5007CFFF71FFC20EAE07008BD84
:1052FC0013B50446007C0191FFF71EFC00280199B0
:10530C0001DC607C20B1207CFFF726FC20EAE070F9
:10531C0002B010BD007CFFF727BC10B51421044669
:10532C00FEF7C9FE204610BD10B54FF47A73044643
:10533C0008460021C4E90113044B236001232074A7
:10534C0063741146FFF7E0FB204610BDB8600B00FC
:10535C00007C0022FFF7E0BB10B5142204460021AC
:10536C0000F09EFD204610BD10B50F4C88B003A870
:10537C00FFF7F2FF2178BFF35B8F11F001010FD122
:10538C0020460191FEF799FE019948B103AA0748FE
:10539C00FFF7CAFF2046FEF795FE054800F06CFDAE
:1053AC00024808B010BD00BF18E703201CE703201B
:1053BC00BD520B0070474174704708B5007CFFF775
:1053CC0063FB20EAE07008BD08B5007CFFF73CFBEE
:1053DC0020EAE07008BD08B5007CFFF745FB40EA09
:1053EC00E07008BD08B5007CFFF736FB40EAE070C2
:1053FC0008BD007CFFF740BB37B5457C04462DB19A
:10540C00207C03B0BDE83040FFF716BB007C019157
:10541C00FFF73AFB00280199F2DC284603B030BDB7
:10542C0010B514210446FEF746FE204610BD0000C0
:10543C0010B54FF47A730446084611460022C4E9AD
:10544C000123044B2360012320746374FFF724FBB6
:10545C00204610BDE8600B0013B503688DF80710EB
:10546C00DC6B01224FF0FF330DF10701A04702B0B6
:10547C0010BD10B40368DC6B4FF0FF33A4465DF82D
:10548C00044B604713B5134602688DF80710D46BB4
:10549C000DF107010122A04702B010BD10B5436900
:1054AC00B3F88620B3F884309A42044608D0636976
:1054BC00B3F88420511CA3F884101344187910BD40
:1054CC0003681B6998470028F1D14FF0FF30F6E7CD
:1054DC00704743691868C043C00F7047704700009D
:1054EC00064B994210B500F10C0405D0084600F0AB
:1054FC00B1FB002808BF0024204610BD74600B00CF
:10550C0010B5AC210446FEF7D6FD204610BDAC21EB
:10551C00FEF7D1BD2DE9F0414FF0000886B01C46D6
:10552C00C0F8048005460E4617464146102202A8D4
:10553C0000F0B6FC631C09D04FF47A73B4FBF3F2A1
:10554C0003FB1244CDE902285C43049468691023E0
:10555C000093006802AB41F2050240F6FF71FFF7C1
:10556C00A3FA002807DAFFF7C3FB03686B6000207F
:10557C0006B0BDE8F0816869002300683A46314600
:10558C00FFF7B2FA031EEEDB1846F1E730B587B031
:10559C00044601AD6846FFF779FE0FCD04340FC405
:1055AC002B68237007B030BD70B54D69054B0446B0
:1055BC008C3544F8043B06460FCD0FC42B68237082
:1055CC00304670BDA4600B002DE9F043984603688B
:1055DC0093B00D460024DB6A0646174698472846CA
:1055EC006B46224621460094FFF7CEF9054600286B
:1055FC0063D1009B002B4BD05B69002B48D006A8D5
:10560C00FFF700FE009B5C696378022B04D1211D1F
:10561C0006A8FFF7BBFF26E00A2B24D1112229464E
:10562C0001A800F03DFCA368002B38D004F108035E
:10563C000DF1040C183418685968624603C208331B
:10564C00A3429446F7D1062301A90CA88DF8143077
:10565C00FFF7E6FD0DF1340CBCE80F0007AC0FC4EE
:10566C00DCF80030237006A8FFF7ECFD80B133683E
:10567C0007ADD3F82090124B0C930FCD0DAC0FC48B
:10568C002B6823703A4643460CA93046C84705465A
:10569C000098FFF771F9284613B0BDE8F083E36872
:1056AC00002BC3D14FF6FF70D4F81090FFF7B4F96C
:1056BC008145BBD104F11401AAE72546E8E700BFF8
:1056CC00A4600B0038B543691A68002A054610DA45
:1056DC00B3F88620B3F884309A420AD103681B6968
:1056EC009847044628B92B682846DB6A9847204619
:1056FC0038BD0120FCE710B54369B3F88620B3F838
:10570C0084309A42044605D06369B3F8842013446C
:10571C00187910BD03681B6998470028F4D14FF025
:10572C00FF30F6E7F8B543691746B3F88620B3F8AF
:10573C0084309A4205460E4616D06969B1F8843019
:10574C00B1F88640E41ABC4228BF3C4604332246DA
:10575C001944304600F096FB6A69B2F88430234451
:10576C00A2F884302046F8BD03681B6998470028CE
:10577C00E3D14FF0FF34F5E742690023A2F88430FF
:10578C004269A2F8863070472DE9F0411F46036844
:10579C000C46DB6A8AB0054616469847237DD5F839
:1057AC001480042B0CBF02200A2006220121FFF7D3
:1057BC00A3F9C8F800006B691B68002B08DA2B688A
:1057CC002846DB6A0024984720460AB0BDE8F081E1
:1057DC002846FFF7D1FFB7B1002303A9F8B2039312
:1057EC00ADF81030FFF7D8F80028E8D16869062327
:1057FC000093006803AB41F20B0240F6FF71FFF718
:10580C0053F90028DBD11C22002103A800F048FB2F
:10581C00237D042B1DD14FF407733046ADF80C30AB
:10582C00FFF702F9ADF80E006068FFF7F5F8049089
:10583C006B691C22186803A9FFF746F90028BED132
:10584C0004340FCC6D698C350FC523682B70012483
:10585C00BAE740F61C233046ADF80C30FFF7E4F8FD
:10586C0005AEADF80E00231D04F114071868596835
:10587C00324603C20833BB421646F7D1D8E70000C4
:10588C0030B54269B2F886308BB004462BB1B2F811
:10589C0084209A4201D1FFF76FFF616908680028E4
:1058AC0018DBB1F886507F2D14D804310823C5F1CC
:1058BC0080022944FFF710F9002813DD6369B3F85F
:1058CC0086200AB9A3F884206369B3F886201044B3
:1058DC00A3F886006369B3F88600B3F88430C01A65
:1058EC000BB030BDFFF704FA03680B2BF2D0FFF7B7
:1058FC00FFF903680B2BEDD020230025CDE90235F1
:10590C00FFF7F6F903680193084B0949009302AAC3
:10591C002B463220FFF730F963691868FFF7CCF893
:10592C0063694FF0FF321A60D4E700BF17610B00B8
:10593C0010610B0010B5436904461868002801DBA0
:10594C00FFF7BAF863694FF0FF321A6060691122F1
:10595C0000218C3000F0A4FA2046BDE81040FFF77F
:10596C000BBF10B5002304460160C0F884308830AA
:10597C00FFF748FC204610BD73B500234FF47A7234
:10598C00C0E901320E4A0361026043610446AC2057
:10599C000191FEF78AFB051E05F10C0608D00123C8
:1059AC00C5E90133074B01992B603046FFF7D9FF4E
:1059BC002046C4E90565FFF7DFFE02B070BD00BFED
:1059CC004C610B0030610B0010B54FF0FF310446F9
:1059DC00FFF7D2FF204610BD10B504460068002822
:1059EC0001DBFFF769F8204610BD0C30FFF7F4BF60
:1059FC00002240681146FFF703B9002240681146A7
:105A0C00FFF71EB9002240681146FFF729B940681C
:105A1C000022FFF71DB94068002281F00101FFF759
:105A2C0007B9002340681A461946FFF7F9B8002356
:105A3C0040681A461946FFF7EBB800224068114639
:105A4C00FFF7CEB8406800220221FFF7D1B800233F
:105A5C0040681A46FFF7BCB8024B04225A60024A4F
:105A6C001A60704730E7032098610B0000234068F0
:105A7C001A46FFF7ADB8406800220221FFF7B8B80C
:105A8C00002240681146FFF7ABB80022406811466F
:105A9C00FFF7B6B8002340681A461946FFF7B8B8A6
:105AAC00002340681A461946FFF7BAB8406800212F
:105ABC00FFF7DEB840680021FFF7E2B8406800222B
:105ACC0081F00101FFF7B4B840680022FFF7C0B8BD
:105ADC00002240681146FFF7C3B800224068114607
:105AEC00FFF7AEB82DE9F04395B014460D460746C6
:105AFC00FFF788FB00211C220DA8009100F0D0F9C3
:105B0C0040230C9320466B460CAA0021FEF73CFF69
:105B1C00044600284BD1024601216868FFF770F853
:105B2C000221804622466868FFF76AF8009E81468B
:105B3C002146002E3BD0002939D17368022B03D0AB
:105B4C000A2B11D0F669F4E7B8F1000FFAD071699D
:105B5C0006A8043107ADFFF799FB0FCD3C1D0FC410
:105B6C002B6823704146EDE7B9F1000FEAD0746958
:105B7C00102201A800F094F906238DF8143001AD21
:105B8C0004F108031834186859682A4603C208330C
:105B9C00A3421546F7D101A906A807ADFFF740FBB4
:105BAC000FCD3C1D0FC42B6823704946CAE70098E3
:105BBC00FEF7E2FE384615B0BDE8F083024B034A0F
:105BCC001A6000225A60704738E70320D4610B003A
:105BDC007047000038B5044614252A46002100F011
:105BEC005FF925804025074925812846258200F04C
:105BFC002FF804496060284600F02AF8E06020463F
:105C0C0038BD00BF08620B0030B50E4D2978BFF3CC
:105C1C005B8F11F0010487B011D12846FEF74DFAC5
:105C2C0068B101A8FFF7D6FF01AA21460648FFF785
:105C3C00FFFB2846FEF746FA044800F01DF902481F
:105C4C0007B030BD40E7032044E70320DD5B0B00C9
:105C5C00FEF72DBA014900F0F9B800BF24620B0021
:105C6C007FB500241023CDE90234036815469E69E4
:105C7C0012686B46CDE90044B0479DF8043003F040
:105C8C000603062B03BF009B2B600120204604B0AB
:105C9C0070BD0098904214BF012006207047000090
:105CAC0010B5034B0360044600F0CDF8204610BD40
:105CBC0064620B0010B50446FFF7F2FF2046082182
:105CCC00FEF7F9F9204610BD2DE9F0411F46DDE93C
:105CDC000834DDF8188098450646154607D1079913
:105CEC0000F0B4F818B165710020BDE8F0813946B8
:105CFC00304600F0ABF80028F6D00123C4F8008041
:105D0C002571A371F0E738B515461C4600F09EF8D6
:105D1C0020B10823E36006232560237138BD73B5D9
:105D2C0005460C4601921E4600F090F850B9032E21
:105D3C0008D82368019A5B692946204602B0BDE861
:105D4C007040184702B070BD10B5034B0360044699
:105D5C00FFF7A6FF204610BDC4620B0010B5044629
:105D6C00FFF7F2FF20460C21FEF7A5F9204610BDE7
:105D7C00F7B5089F974205460E4614460AD0A86808
:105D8C0002680897156A31462246AC4603B0BDE856
:105D9C00F04060471946019300F058F8019B002829
:105DAC00EDD0062003B0F0BD2DE9F14F0D4619469C
:105DBC00DDE90A4BDDE90CA681461746984600F052
:105DCC0045F890B1002D3460377109DB61198A45B3
:105DDC000CBF06210121B171002001B0BDE8F08F8C
:105DEC000235F9D10123B371F6E7544506D1594672
:105DFC00484600F02BF808B17771EDE7D9F80800A8
:105E0C000368CDE90CA6CDE90A4BDC693A4643465A
:105E1C002946A44601B0BDE8F04F60472DE9F0419A
:105E2C0007460C4615461E46FFF76DFF48B9B86885
:105E3C0003689F692A4633462146BC46BDE8F041BB
:105E4C006047BDE8F081704700207047814208B57B
:105E5C000ED0406803782A2B0CD049680B782A2B7B
:105E6C0008BF0131FEF7D4F8B0FA80F0400908BD44
:105E7C000120FCE70020FAE7002301461A461846E9
:105E8C0000F044B80A44914200F1FF3300D170474E
:105E9C0010B511F8014B03F8014F9142F9D110BD27
:105EAC0002440346934200D1704703F8011BF9E703
:105EBC0038B5104B1D68AB6B0446B3B91820FEF710
:105ECC00F7FE0246A86320B90B4B0C484221FEF7A3
:105EDC0017FF0B490B4BC0E900130B4B83600B23D3
:105EEC00838100210120C2E90401AB6B00221C61FB
:105EFC005A6138BD14E60320FD620B0014630B00DD
:105F0C000E33CDAB34126DE6ECDE05002DE9F84313
:105F1C00DFF8B8800646D8F800001F460D469146BB
:105F2C0000F056F8254B1C6834B9254C1C60254BE9
:105F3C0013B11B68C4F8883063681F2B07DDD8F8D1
:105F4C00000000F047F84FF0FF30BDE8F8834EB387
:105F5C00D4F8880088B91C4B23B9D8F8000000F09D
:105F6C0038F8F0E74FF48470FEF7A2FE0028F4D066
:105F7C000023C0E94033C4F88800636840F82390DC
:105F8C0001229A4000EB8301D0F800311343C0F892
:105F9C000031022EC1F8807002BFD0F804311343D7
:105FAC00C0F804316368D8F800005A1C02336260F0
:105FBC0044F8235000F00EF80020C6E7E8E7032071
:105FCC005CE7032000000000BD4C0B0078E60320CA
:105FDC00704770477047000000044D515454040042
:105FEC00064D51497364700341400B007D400B001A
:105FFC00A5400B00A9400B00000000002573004CCD
:10600C00616231372F6E6F727468004C6162313788
:10601C002F6561737400776F726B733F006C6162F4
:10602C002E74686577636C2E636F6D000000000042
:10603C00000000008B4D0B00814D0B00774D0B00C9
:10604C006D4D0B00614D0B00554D0B00B95A0B00FB
:10605C00C15A0B00494D0B00414D0B00374D0B0045
:10606C002D4D0B00F15A0B00000000000000000049
:10607C006170700025592D256D2D25645425483AE5
:10608C00254D3A2553257A0061736374696D65005B
:10609C000000000000000000AD510B009D510B00F2
:1060AC009F510B000000000000000000BF520B00CD
:1060BC0027530B00FD520B00E94E0B00EF520B0067
:1060CC00C1520B00D1520B0021530B00E1520B00BB
:1060DC00B9520B000000000000000000C1530B007F
:1060EC002D540B0005540B00E94E0B00D5530B003F
:1060FC00F1530B00E3530B00FF530B00C3530B0086
:10610C00C7530B00776972696E67007265637620FE
:10611C006572726F72203D20256400000000000043
:10612C0000000000E9540B000D550B00F7590B0053
:10613C001B550B00ED540B0000000000000000008C
:10614C002D500B0045500B0065540B007F540B0079
:10615C008D580B00A9540B0003570B00DD540B009A
:10616C0095570B00D5550B0031570B0041590B00BF
:10617C00D1560B00DF540B0091540B0021550B0032
:10618C00B5550B0000000000000000005B5A0B002E
:10619C00515A0B00475A0B00FD590B003B5A0B0090
:1061AC002F5A0B00B95A0B00C15A0B00235A0B0083
:1061BC001B5A0B00115A0B00075A0B00F15A0B001B
:1061CC000000000000000000795A0B00835A0B00FD
:1061DC008D5A0B00975A0B00A15A0B00AD5A0B00AD
:1061EC00B95A0B00C15A0B00C95A0B00D55A0B00F7
:1061FC00DD5A0B00E75A0B00F15A0B0000537431B7
:10620C00395F53705F6D616B655F73686172656454
:10621C005F7461670000000064620B0009620B0090
:10622C00C4620B0038620B00E8620B004E31305F29
:10623C005F637878616269763131375F5F636C6177
:10624C0073735F747970655F696E666F45000000EB
:10625C00000000002C620B00AD5C0B00C15C0B005D
:10626C00555E0B00555E0B002B5D0B006D5C0B003F
:10627C00135D0B00D55C0B009F5C0B00C4620B0024
:10628C0094620B002C620B004E31305F5F637878A8
:10629C00616269763132305F5F73695F636C617321
:1062AC00735F747970655F696E666F4500000000FE
:1062BC000000000088620B00555D0B00695D0B004F
:1062CC00555E0B00555E0B002B5D0B006D5C0B00DF
:1062DC00295E0B00B55D0B007D5D0B0064620B004D
:1062EC00F0620B00537439747970655F696E666F78
:1062FC00005245454E54206D616C6C6F6320737574
:10630C0063636565646564002F6D6E742F776F72BF
:10631C006B73706163652F776F726B7370616365FC
:10632C002F4743432D31302D706970656C696E6554
:10633C002F6A656E6B696E732D4743432D31302D7B
:10634C00706970656C696E652D34385F323032302F
:10635C00313132345F313630363138303634312FDA
:10636C007372632F6E65776C69622F6E65776C69DB
:10637C00622F6C6962632F7374646C69622F726133
:10638C006E642E6300000000ED410B00954D0B0078
:10639C00A94D0B00D94E0B0009500B0019500B00E6
:0C63AC0059500B00655A0B00C95B0B0038
:1063B800040000001400000003000000474E5500D0
:1063C80013555E05BCCFB63A91DFE3744F54497755
:0463D80005364EF246
:1063DC0094600B0018E60320000000000000000091
:1063EC0000000000000000000000000000000000A1
:1063FC000000000000000000000000000000000091
:10640C000000000000000000000000000000000080
:10641C000000000000000000000000000000000070
:10642C000000000000000000000000000000000060
:0C643C000000000000000000ECE703205E
:046448000000000050
:1064520000000102030405060708090A0B0C0D0ED1
:106462000F101112131415161718191A1B1C1D1EC2
:046472001F202800BF
:04647600785634120E
:04000003B000401CED
:00000001FF
